:100000000C9434000C9449000C9449000C94490061
:100010000C9449000C9449000C9449000C9449003C
:100020000C9449000C9449000C9449000C9449002C
:100030000C9449000C9449000C9449000C9449001C
:100040000C9449000C9449000C9449000C9449000C
:100050000C9449000C9449000C9449000C944900FC
:100060000C9449000C94490011241FBECFEFD8E036
:10007000DEBFCDBF11E0A0E0B1E0EAEFF3E002C0E7
:1000800005900D92AE30B107D9F70E943B010C9458
:10009000FB010C94000048B1982F907F292F30E08D
:1000A0003595279535952795942F9370292B28B949
:1000B00098B19E7F98B998B1926098B995E09A9559
:1000C000F1F7000098B19D7F98B9EFE1F3E0319727
:1000D000F1F700C0000028B18F7090E0880F991FE1
:1000E000880F991F922F9370892B88B988B18260ED
:1000F00088B9F5E0FA95F1F7000088B18D7F88B9ED
:100100008FE39FE10197F1F700C00000089548B127
:10011000982F907F292F30E0359527953595279595
:10012000942F9370292B28B998B1916098B998B100
:10013000926098B995E09A95F1F7000098B19D7F8B
:1001400098B9EFE1F3E03197F1F700C0000028B172
:100150008F7090E0880F991F880F991F922F9370CE
:10016000892B88B988B1826088B9F5E0FA95F1F7F2
:10017000000088B18D7F88B98FE39FE10197F1F787
:1001800000C0000008958FEF87B92FEF89EF90E04E
:10019000215080409040E1F700C0000082E00E94C2
:1001A0004B0088E20E944B008CE00E944B0086E0EE
:1001B0000E944B0081E00E944B008FE39FE101977A
:1001C000F1F700C0000008950F931F93CF93DF93C2
:1001D0008C01C0E0D0E003C00E9487002196F801A6
:1001E000EC0FFD1F80818111F7CFDF91CF911F911F
:1001F0000F910895CF93DF93EA01811108C0603118
:1002000030F4862F8F7080680E944B0009C08130C7
:1002100039F4603128F4862F8F70806C0E944B0077
:10022000CE010E94E400DF91CF91089584B18C7FCC
:1002300084B985B1836085B9089518990CC02FEFF2
:1002400081EE94E0215080409040E1F700C0000032
:100250008FEF9FEF02C080E090E019990BC02FEF65
:1002600081EE94E0215080409040E1F700C0000012
:1002700081E090E00895CF93DF93CDB7DEB7649728
:100280000FB6F894DEBF0FBECDBF84B5836084BDCA
:1002900085B5836085BD84B5806884BD8AB180647E
:1002A0008AB98AB180638AB90E9416010E94C3008C
:1002B0000AEF10E00E941D019C01220F331F880FDE
:1002C000991F880F991F880F991F820F931F080F7E
:1002D000191F0F3F110509F01CF4112334F403C05A
:1002E0000FEF10E002C000E010E01016110644F419
:1002F0008BB180618BB98BB18F7D8BB907BD13C07A
:10030000112354F48BB18F7E8BB98BB180628BB982
:10031000802F819587BD07C08BB18F7E8BB98BB144
:100320008F7D8BB917BC4AE0BE016F5F7F4FC8015C
:100330000E94C6014AE0BE01655F7F4F82E390E004
:100340000E94C60140E051E060E080E00E94FA00B7
:10035000AE014F5F5F4F65E080E00E94FA0046E02B
:1003600051E060E081E00E94FA00AE01455F5F4F1E
:1003700067E081E00E94FA002FEF81EE94E02150C7
:1003800080409040E1F700C0000094CFBB274A3086
:1003900031F4992322F4BDE2909581959F4F0C94FE
:1003A000D201BB27FB015527AA27880F991FAA1F37
:1003B000A41710F0A41B83955051B9F7A05DAA3380
:1003C00008F0A95DA193009779F7B111B19311924B
:1003D000CB010C94EB01DC01FC01672F71917723B9
:1003E000E1F7329704C07C916D9370836291AE17F0
:0A03F000BF07C8F30895F894FFCF8B
:0E03FA0050574D3A200053504545443A2000DC
:00000001FF
