:100000000C9434000C943E000C943E000C943E0082
:100010000C943E000C943E000C943E000C943E0068
:100020000C943E000C943E000C943E000C943E0058
:100030000C943E000C943E000C943E000C943E0048
:100040000C943E000C943E000C943E000C943E0038
:100050000C943E000C943E000C943E000C943E0028
:100060000C943E000C943E0011241FBECFEFD8E04C
:10007000DEBFCDBF0E9465000C94B2000C9400005E
:1000800084B18C7F84B985B1836085B9089518994E
:100090000CC02FEF81EE94E0215080409040E1F7BA
:1000A00000C000008FEF9FEF02C080E090E0199940
:1000B0000BC02FEF81EE94E0215080409040E1F79B
:1000C00000C0000081E090E0089584B5836084BDA5
:1000D00085B5836085BD84B5806884BD8AB1806440
:1000E0008AB98AB180638AB90E944000CAEFD0E021
:1000F0000E9447009C01220F331F880F991F880F11
:10010000991F880F991F820F931FC80FD91FCF3FC8
:10011000D10509F01CF4DD2334F403C0CFEFD0E0A7
:1001200002C0C0E0D0E01C161D0644F48BB1806113
:100130008BB98BB18F7D8BB9C7BDDACFDD2354F47A
:100140008BB18F7E8BB98BB180628BB98C2F8195EF
:1001500087BDCECF8BB18F7E8BB98BB18F7D8BB9A5
:0801600017BCC6CFF894FFCFD5
:00000001FF
