S01C000050726F6A65637431315F61746D656761333238702E73726563F4
S11300000C9434000C9463000C94A2000C945100E2
S11300100C9451000C9451000C9451000C94510018
S11300200C9451000C9451000C9451000C94510008
S11300300C9451000C9451000C9451000C945100F8
S11300400C947E020C9451000C9451000C945100B9
S11300500C9451000C9451000C9451000C945100D8
S11300600C9451000C94510011241FBECFEFD8E022
S1130070DEBFCDBF11E0A0E0B1E0E4E7F9E002C0EB
S113008005900D92A031B107D9F721E0A0E1B1E0CC
S113009001C01D92A233B207E1F70E94DE010C9465
S11300A0B8040C940000E9E6F0E080818F6080835E
S11300B08DB383608DBB8AB1837F8AB98BB18C6029
S11300C08BB9789408951F920F920FB60F92112452
S11300D08F939F9389B1887090E0959587959595B6
S11300E087959595879590931D0180931C0189B1FF
S11300F0847090E0959587959595879590931B01CD
S113010080931A0180911C0190911D01019751F473
S1130110809118019091190101979093190180938E
S1130120180109C0809118019091190101969093CA
S11301301901809318019F918F910F900FBE0F901A
S11301401F9018951F920F920FB60F9211248F9340
S11301509F9389B1887090E095958795959587953B
S11301609595879590931D0180931C0189B18470A6
S113017090E0959587959595879590931B0180932D
S11301801A0180911A0190911B01019751F48091F9
S11301901801909119010196909319018093180107
S11301A009C0809118019091190101979093190148
S11301B0809318019F918F910F900FBE0F901F9005
S11301C0189548B1982F907F292F30E035952795C1
S11301D035952795942F9370292B28B998B19E7F34
S11301E098B998B1926098B995E09A95F1F70000A2
S11301F098B19D7F98B9EFE1F3E03197F1F700C032
S1130200000028B18F7090E0880F991F880F991F04
S1130210922F9370892B88B988B1826088B9F5E0F0
S1130220FA95F1F7000088B18D7F88B98FE39FE1DB
S11302300197F1F700C00000089548B1982F907F0E
S1130240292F30E03595279535952795942F937070
S1130250292B28B998B1916098B998B1926098B94E
S113026095E09A95F1F7000098B19D7F98B9EFE178
S1130270F3E03197F1F700C0000028B18F7090E0EF
S1130280880F991F880F991F922F9370892B88B913
S113029088B1826088B9F5E0FA95F1F7000088B179
S11302A08D7F88B98FE39FE10197F1F700C00000CB
S11302B008958FEF87B92FEF89EF90E021508040A8
S11302C09040E1F700C0000082E00E94E10088E273
S11302D00E94E1008CE00E94E10086E00E94E100BF
S11302E081E00E94E1008FE39FE10197F1F700C0F4
S11302F0000008950F931F93CF93DF938C01C0E008
S1130300D0E003C00E941D012196F801EC0FFD1FEF
S113031080818111F7CFDF91CF911F910F910895C3
S1130320CF93DF93EA01811108C0603130F4862F46
S11303308F7080680E94E10009C0813039F4603117
S113034028F4862F8F70806C0E94E100CE010E94F9
S11303507A01DF91CF91089581E00E94E1008FE35B
S11303609FE10197F1F700C0000080E80E94E100DE
S1130370089584B18C7F84B985B1836085B908956B
S113038018990CC02FEF81EE94E0215080409040EA
S1130390E1F700C000008FEF9FEF02C080E090E023
S11303A019990BC02FEF81EE94E0215080409040CA
S11303B0E1F700C0000081E090E0089584B5836017
S11303C084BD85B5836085BD84B5806884BDEEE653
S11303D0F0E08081816080838AB180648AB98AB1C7
S11303E080638AB90E94B9010E9459010E94530096
S11303F00E94C00190931701809316019C01220F63
S1130400331F880F991F880F991F880F991F820F18
S1130410931F2091000130910101820F931F90934B
S11304200101809300018F3F910541F03CF08FEF73
S113043090E0909301018093000109C081309F4FA7
S113044034F481E09FEF9093010180930001809147
S11304500001909101011816190644F49BB19062B1
S11304609BB99BB19F7E9BB987BD12C099234CF465
S11304709BB19F7D9BB99BB190619BB9819587BDD1
S113048007C08BB18F7E8BB98BB18F7D8BB917BCB5
S11304904AE06EE171E080910001909101010E94B7
S11304A083044AE068E271E080911401909115019F
S11304B00E9483040E94AC0142E051E060E080E0CD
S11304C00E9490014EE151E065E080E00E949001BD
S11304D048E051E060E081E00E94900148E251E090
S11304E067E081E00E9490018FEF91EE24E081505B
S11304F090402040E1F700C000007ACF1F920F9295
S11305000FB60F9211242F933F934F935F936F93E2
S11305107F938F939F93AF93BF93EF93FF938091B8
S11305201001909111010196909311018093100193
S113053085369105A4F1609118017091190180919B
S1130540120190911301681B790B072E000C880B84
S1130550990B0E948A0327E137EB41ED5DE30E948A
S1130560E00220E030E04AE453E40E94E00220E0AC
S113057030E040E752E40E9416040E945203709354
S113058015016093140110921101109210018091D1
S11305901801909119019093130180931201FF9116
S11305A0EF91BF91AF919F918F917F916F915F91E7
S11305B04F913F912F910F900FBE0F901F90189560
S11305C00E94F4020C94DC030E94D50358F00E94AC
S11305D0CE0340F029F45F3F29F00C94C503511178
S11305E00C9410040C94CB030E94ED0368F399233C
S11305F0B1F3552391F3951B550BBB27AA2762171B
S11306007307840738F09F5F5F4F220F331F441F27
S1130610AA1FA9F335D00E2E3AF0E0E832D091505B
S11306205040E695001CCAF72BD0FE2F29D0660F48
S1130630771F881FBB1F261737074807AB07B0E88B
S113064009F0BB0B802DBF01FF2793585F4F3AF091
S11306509E3F510578F00C94C5030C9410045F3F41
S1130660E4F3983ED4F3869577956795B795F79517
S11306709F5FC9F7880F911D9695879597F90895FF
S1130680E1E0660F771F881FBB1F6217730784079B
S1130690BA0720F0621B730B840BBA0BEE1F88F7AA
S11306A0E09508950E9459036894B1110C941004C4
S11306B008950E94F50388F09F5798F0B92F992761
S11306C0B751B0F0E1F0660F771F881F991F1AF039
S11306D0BA95C9F714C0B13091F00E940F04B1E08B
S11306E008950C940F04672F782F8827B85F39F08A
S11306F0B93FCCF3869577956795B395D9F73EF4D2
S113070090958095709561957F4F8F4F9F4F089579
S1130710E89409C097FB3EF4909580957095619597
S11307207F4F8F4F9F4F9923A9F0F92F96E9BB274D
S11307309395F695879577956795B795F111F8CFC9
S1130740FAF4BB0F11F460FF1BC06F5F7F4F8F4F34
S11307509F4F16C0882311F096E911C0772321F02A
S11307609EE8872F762F05C0662371F096E8862FC2
S113077070E060E02AF09A95660F771F881FDAF719
S1130780880F9695879597F9089597F99F6780E85C
S113079070E060E008959FEF80EC089500240A94CF
S11307A01616170618060906089500240A94121648
S11307B01306140605060895092E0394000C11F47B
S11307C0882352F0BB0F40F4BF2B11F460FF04C028
S11307D06F5F7F4F8F4F9F4F089557FD9058440F81
S11307E0551F59F05F3F71F04795880F97FB991F8C
S11307F061F09F3F79F08795089512161306140649
S1130800551FF2CF4695F1DF08C0161617061806D5
S1130810991FF1CF86957105610508940895E894B0
S1130820BB2766277727CB0197F908950E942904EF
S11308300C94DC030E94CE0338F00E94D50320F010
S1130840952311F00C94C5030C94CB0311240C9440
S113085010040E94ED0370F3959FC1F3950F50E0CF
S1130860551F629FF001729FBB27F00DB11D639F5E
S1130870AA27F00DB11DAA1F649F6627B00DA11D04
S1130880661F829F2227B00DA11D621F739FB00DAA
S1130890A11D621F839FA00D611D221F749F33271A
S11308A0A00D611D231F849F600D211D822F762FB3
S11308B06A2F11249F5750409AF0F1F088234AF090
S11308C0EE0FFF1FBB1F661F771F881F91505040FC
S11308D0A9F79E3F510580F00C94C5030C941004B5
S11308E05F3FE4F3983ED4F3869577956795B79583
S11308F0F795E7959F5FC1F7FE2B880F911D96959D
S1130900879597F90895BB274A3031F4992322F447
S1130910BDE2909581959F4F0C948F04BB27FB01FA
S11309205527AA27880F991FAA1FA41710F0A41BE4
S113093083955051B9F7A05DAA3308F0A95DA1933E
S1130940009779F7B111B1931192CB010C94A804DB
S1130950DC01FC01672F71917723E1F7329704C022
S11309607C916D9370836291AE17BF07C8F30895AD
S1070970F894FFCF25
S1130974FA0050574D3A200053504545443A20005C
S9030000FC
